{
  "_format": "hh-sol-artifact-1",
  "contractName": "WP",
  "sourceName": "contracts/WP.sol",
  "abi": [
    {
      "inputs": [
        {
          "internalType": "string",
          "name": "name",
          "type": "string"
        },
        {
          "internalType": "string",
          "name": "symbol",
          "type": "string"
        },
        {
          "internalType": "address",
          "name": "initialAccount",
          "type": "address"
        },
        {
          "internalType": "uint256",
          "name": "initialBalance",
          "type": "uint256"
        }
      ],
      "stateMutability": "nonpayable",
      "type": "constructor"
    },
    {
      "anonymous": false,
      "inputs": [
        {
          "indexed": true,
          "internalType": "address",
          "name": "owner",
          "type": "address"
        },
        {
          "indexed": true,
          "internalType": "address",
          "name": "spender",
          "type": "address"
        },
        {
          "indexed": false,
          "internalType": "uint256",
          "name": "value",
          "type": "uint256"
        }
      ],
      "name": "Approval",
      "type": "event"
    },
    {
      "anonymous": false,
      "inputs": [
        {
          "indexed": false,
          "internalType": "address",
          "name": "account",
          "type": "address"
        }
      ],
      "name": "Paused",
      "type": "event"
    },
    {
      "anonymous": false,
      "inputs": [
        {
          "indexed": true,
          "internalType": "bytes32",
          "name": "role",
          "type": "bytes32"
        },
        {
          "indexed": true,
          "internalType": "bytes32",
          "name": "previousAdminRole",
          "type": "bytes32"
        },
        {
          "indexed": true,
          "internalType": "bytes32",
          "name": "newAdminRole",
          "type": "bytes32"
        }
      ],
      "name": "RoleAdminChanged",
      "type": "event"
    },
    {
      "anonymous": false,
      "inputs": [
        {
          "indexed": true,
          "internalType": "bytes32",
          "name": "role",
          "type": "bytes32"
        },
        {
          "indexed": true,
          "internalType": "address",
          "name": "account",
          "type": "address"
        },
        {
          "indexed": true,
          "internalType": "address",
          "name": "sender",
          "type": "address"
        }
      ],
      "name": "RoleGranted",
      "type": "event"
    },
    {
      "anonymous": false,
      "inputs": [
        {
          "indexed": true,
          "internalType": "bytes32",
          "name": "role",
          "type": "bytes32"
        },
        {
          "indexed": true,
          "internalType": "address",
          "name": "account",
          "type": "address"
        },
        {
          "indexed": true,
          "internalType": "address",
          "name": "sender",
          "type": "address"
        }
      ],
      "name": "RoleRevoked",
      "type": "event"
    },
    {
      "anonymous": false,
      "inputs": [
        {
          "indexed": true,
          "internalType": "address",
          "name": "from",
          "type": "address"
        },
        {
          "indexed": true,
          "internalType": "address",
          "name": "to",
          "type": "address"
        },
        {
          "indexed": false,
          "internalType": "uint256",
          "name": "value",
          "type": "uint256"
        }
      ],
      "name": "Transfer",
      "type": "event"
    },
    {
      "anonymous": false,
      "inputs": [
        {
          "indexed": false,
          "internalType": "address",
          "name": "account",
          "type": "address"
        }
      ],
      "name": "Unpaused",
      "type": "event"
    },
    {
      "inputs": [],
      "name": "DEFAULT_ADMIN_ROLE",
      "outputs": [
        {
          "internalType": "bytes32",
          "name": "",
          "type": "bytes32"
        }
      ],
      "stateMutability": "view",
      "type": "function"
    },
    {
      "inputs": [],
      "name": "DOMAIN_SEPARATOR",
      "outputs": [
        {
          "internalType": "bytes32",
          "name": "",
          "type": "bytes32"
        }
      ],
      "stateMutability": "view",
      "type": "function"
    },
    {
      "inputs": [],
      "name": "MINTER_ROLE",
      "outputs": [
        {
          "internalType": "bytes32",
          "name": "",
          "type": "bytes32"
        }
      ],
      "stateMutability": "view",
      "type": "function"
    },
    {
      "inputs": [],
      "name": "PAUSER_ROLE",
      "outputs": [
        {
          "internalType": "bytes32",
          "name": "",
          "type": "bytes32"
        }
      ],
      "stateMutability": "view",
      "type": "function"
    },
    {
      "inputs": [
        {
          "internalType": "address",
          "name": "owner",
          "type": "address"
        },
        {
          "internalType": "address",
          "name": "spender",
          "type": "address"
        }
      ],
      "name": "allowance",
      "outputs": [
        {
          "internalType": "uint256",
          "name": "",
          "type": "uint256"
        }
      ],
      "stateMutability": "view",
      "type": "function"
    },
    {
      "inputs": [
        {
          "internalType": "address",
          "name": "spender",
          "type": "address"
        },
        {
          "internalType": "uint256",
          "name": "amount",
          "type": "uint256"
        }
      ],
      "name": "approve",
      "outputs": [
        {
          "internalType": "bool",
          "name": "",
          "type": "bool"
        }
      ],
      "stateMutability": "nonpayable",
      "type": "function"
    },
    {
      "inputs": [
        {
          "internalType": "address",
          "name": "account",
          "type": "address"
        }
      ],
      "name": "balanceOf",
      "outputs": [
        {
          "internalType": "uint256",
          "name": "",
          "type": "uint256"
        }
      ],
      "stateMutability": "view",
      "type": "function"
    },
    {
      "inputs": [
        {
          "internalType": "uint256",
          "name": "amount",
          "type": "uint256"
        }
      ],
      "name": "burn",
      "outputs": [],
      "stateMutability": "nonpayable",
      "type": "function"
    },
    {
      "inputs": [
        {
          "internalType": "address",
          "name": "account",
          "type": "address"
        },
        {
          "internalType": "uint256",
          "name": "amount",
          "type": "uint256"
        }
      ],
      "name": "burnFrom",
      "outputs": [],
      "stateMutability": "nonpayable",
      "type": "function"
    },
    {
      "inputs": [],
      "name": "decimals",
      "outputs": [
        {
          "internalType": "uint8",
          "name": "",
          "type": "uint8"
        }
      ],
      "stateMutability": "view",
      "type": "function"
    },
    {
      "inputs": [
        {
          "internalType": "address",
          "name": "spender",
          "type": "address"
        },
        {
          "internalType": "uint256",
          "name": "subtractedValue",
          "type": "uint256"
        }
      ],
      "name": "decreaseAllowance",
      "outputs": [
        {
          "internalType": "bool",
          "name": "",
          "type": "bool"
        }
      ],
      "stateMutability": "nonpayable",
      "type": "function"
    },
    {
      "inputs": [],
      "name": "getChainId",
      "outputs": [
        {
          "internalType": "uint256",
          "name": "",
          "type": "uint256"
        }
      ],
      "stateMutability": "view",
      "type": "function"
    },
    {
      "inputs": [
        {
          "internalType": "bytes32",
          "name": "role",
          "type": "bytes32"
        }
      ],
      "name": "getRoleAdmin",
      "outputs": [
        {
          "internalType": "bytes32",
          "name": "",
          "type": "bytes32"
        }
      ],
      "stateMutability": "view",
      "type": "function"
    },
    {
      "inputs": [
        {
          "internalType": "bytes32",
          "name": "role",
          "type": "bytes32"
        },
        {
          "internalType": "uint256",
          "name": "index",
          "type": "uint256"
        }
      ],
      "name": "getRoleMember",
      "outputs": [
        {
          "internalType": "address",
          "name": "",
          "type": "address"
        }
      ],
      "stateMutability": "view",
      "type": "function"
    },
    {
      "inputs": [
        {
          "internalType": "bytes32",
          "name": "role",
          "type": "bytes32"
        }
      ],
      "name": "getRoleMemberCount",
      "outputs": [
        {
          "internalType": "uint256",
          "name": "",
          "type": "uint256"
        }
      ],
      "stateMutability": "view",
      "type": "function"
    },
    {
      "inputs": [
        {
          "internalType": "bytes32",
          "name": "role",
          "type": "bytes32"
        },
        {
          "internalType": "address",
          "name": "account",
          "type": "address"
        }
      ],
      "name": "grantRole",
      "outputs": [],
      "stateMutability": "nonpayable",
      "type": "function"
    },
    {
      "inputs": [
        {
          "internalType": "bytes32",
          "name": "role",
          "type": "bytes32"
        },
        {
          "internalType": "address",
          "name": "account",
          "type": "address"
        }
      ],
      "name": "hasRole",
      "outputs": [
        {
          "internalType": "bool",
          "name": "",
          "type": "bool"
        }
      ],
      "stateMutability": "view",
      "type": "function"
    },
    {
      "inputs": [
        {
          "internalType": "address",
          "name": "spender",
          "type": "address"
        },
        {
          "internalType": "uint256",
          "name": "addedValue",
          "type": "uint256"
        }
      ],
      "name": "increaseAllowance",
      "outputs": [
        {
          "internalType": "bool",
          "name": "",
          "type": "bool"
        }
      ],
      "stateMutability": "nonpayable",
      "type": "function"
    },
    {
      "inputs": [
        {
          "internalType": "address",
          "name": "to",
          "type": "address"
        },
        {
          "internalType": "uint256",
          "name": "amount",
          "type": "uint256"
        }
      ],
      "name": "mint",
      "outputs": [],
      "stateMutability": "nonpayable",
      "type": "function"
    },
    {
      "inputs": [],
      "name": "name",
      "outputs": [
        {
          "internalType": "string",
          "name": "",
          "type": "string"
        }
      ],
      "stateMutability": "view",
      "type": "function"
    },
    {
      "inputs": [
        {
          "internalType": "address",
          "name": "owner",
          "type": "address"
        }
      ],
      "name": "nonces",
      "outputs": [
        {
          "internalType": "uint256",
          "name": "",
          "type": "uint256"
        }
      ],
      "stateMutability": "view",
      "type": "function"
    },
    {
      "inputs": [],
      "name": "pause",
      "outputs": [],
      "stateMutability": "nonpayable",
      "type": "function"
    },
    {
      "inputs": [],
      "name": "paused",
      "outputs": [
        {
          "internalType": "bool",
          "name": "",
          "type": "bool"
        }
      ],
      "stateMutability": "view",
      "type": "function"
    },
    {
      "inputs": [
        {
          "internalType": "address",
          "name": "owner",
          "type": "address"
        },
        {
          "internalType": "address",
          "name": "spender",
          "type": "address"
        },
        {
          "internalType": "uint256",
          "name": "value",
          "type": "uint256"
        },
        {
          "internalType": "uint256",
          "name": "deadline",
          "type": "uint256"
        },
        {
          "internalType": "uint8",
          "name": "v",
          "type": "uint8"
        },
        {
          "internalType": "bytes32",
          "name": "r",
          "type": "bytes32"
        },
        {
          "internalType": "bytes32",
          "name": "s",
          "type": "bytes32"
        }
      ],
      "name": "permit",
      "outputs": [],
      "stateMutability": "nonpayable",
      "type": "function"
    },
    {
      "inputs": [
        {
          "internalType": "bytes32",
          "name": "role",
          "type": "bytes32"
        },
        {
          "internalType": "address",
          "name": "account",
          "type": "address"
        }
      ],
      "name": "renounceRole",
      "outputs": [],
      "stateMutability": "nonpayable",
      "type": "function"
    },
    {
      "inputs": [
        {
          "internalType": "bytes32",
          "name": "role",
          "type": "bytes32"
        },
        {
          "internalType": "address",
          "name": "account",
          "type": "address"
        }
      ],
      "name": "revokeRole",
      "outputs": [],
      "stateMutability": "nonpayable",
      "type": "function"
    },
    {
      "inputs": [
        {
          "internalType": "bytes4",
          "name": "interfaceId",
          "type": "bytes4"
        }
      ],
      "name": "supportsInterface",
      "outputs": [
        {
          "internalType": "bool",
          "name": "",
          "type": "bool"
        }
      ],
      "stateMutability": "view",
      "type": "function"
    },
    {
      "inputs": [],
      "name": "symbol",
      "outputs": [
        {
          "internalType": "string",
          "name": "",
          "type": "string"
        }
      ],
      "stateMutability": "view",
      "type": "function"
    },
    {
      "inputs": [],
      "name": "totalSupply",
      "outputs": [
        {
          "internalType": "uint256",
          "name": "",
          "type": "uint256"
        }
      ],
      "stateMutability": "view",
      "type": "function"
    },
    {
      "inputs": [
        {
          "internalType": "address",
          "name": "recipient",
          "type": "address"
        },
        {
          "internalType": "uint256",
          "name": "amount",
          "type": "uint256"
        }
      ],
      "name": "transfer",
      "outputs": [
        {
          "internalType": "bool",
          "name": "",
          "type": "bool"
        }
      ],
      "stateMutability": "nonpayable",
      "type": "function"
    },
    {
      "inputs": [
        {
          "internalType": "address",
          "name": "sender",
          "type": "address"
        },
        {
          "internalType": "address",
          "name": "recipient",
          "type": "address"
        },
        {
          "internalType": "uint256",
          "name": "amount",
          "type": "uint256"
        }
      ],
      "name": "transferFrom",
      "outputs": [
        {
          "internalType": "bool",
          "name": "",
          "type": "bool"
        }
      ],
      "stateMutability": "nonpayable",
      "type": "function"
    },
    {
      "inputs": [],
      "name": "unpause",
      "outputs": [],
      "stateMutability": "nonpayable",
      "type": "function"
    }
  ],
  "bytecode": "0x6101406040527f6e71edae12b1b97f4d1f60370fef10105fa2faae0126114a169c64845d6126c9610120908152503480156200003a57600080fd5b5060405162004b5838038062004b5883398181016040528101906200006091906200085e565b83806040518060400160405280600181526020017f3100000000000000000000000000000000000000000000000000000000000000815250868681818160059080519060200190620000b49291906200070e565b508060069080519060200190620000cd9291906200070e565b5050506000600760006101000a81548160ff0219169083151502179055506200010f6000801b620001036200022d60201b60201c565b6200023560201b60201c565b620001507f9f2df0fed2c77648de5860a4cc508cd0818c85b8b8a1ab4ceeef8d981c8956a6620001446200022d60201b60201c565b6200023560201b60201c565b620001917f65d7a28e3265b37a6474929f336521b332c1681b933f6cb9f3376673440d862a620001856200022d60201b60201c565b6200023560201b60201c565b505060008280519060200120905060008280519060200120905060007f8b73c3c69bb8fe3d512ecc4cf759cc79239f7b179b0ffacaa9a75d522b39400f90508260c081815250508160e081815250504660a08181525050620001fb8184846200027d60201b60201c565b60808181525050806101008181525050505050505050620002238282620002b960201b60201c565b5050505062000ce1565b600033905090565b6200024c82826200041f60201b620011581760201c565b6200027881600160008581526020019081526020016000206200043560201b620011661790919060201c565b505050565b600083838346306040516020016200029a959493929190620009d9565b6040516020818303038152906040528051906020012090509392505050565b600073ffffffffffffffffffffffffffffffffffffffff168273ffffffffffffffffffffffffffffffffffffffff1614156200032c576040517f08c379a0000000000000000000000000000000000000000000000000000000008152600401620003239062000a36565b60405180910390fd5b62000340600083836200046d60201b60201c565b806004600082825462000354919062000b0f565b9250508190555080600260008473ffffffffffffffffffffffffffffffffffffffff1673ffffffffffffffffffffffffffffffffffffffff1681526020019081526020016000206000828254620003ac919062000b0f565b925050819055508173ffffffffffffffffffffffffffffffffffffffff16600073ffffffffffffffffffffffffffffffffffffffff167fddf252ad1be2c89b69c2b068fc378daa952ba7f163c4a11628f55a4df523b3ef8360405162000413919062000a7a565b60405180910390a35050565b6200043182826200048a60201b60201c565b5050565b600062000465836000018373ffffffffffffffffffffffffffffffffffffffff1660001b6200057b60201b60201c565b905092915050565b62000485838383620005f560201b620011961760201c565b505050565b6200049c82826200066560201b60201c565b6200057757600160008084815260200190815260200160002060000160008373ffffffffffffffffffffffffffffffffffffffff1673ffffffffffffffffffffffffffffffffffffffff16815260200190815260200160002060006101000a81548160ff0219169083151502179055506200051c6200022d60201b60201c565b73ffffffffffffffffffffffffffffffffffffffff168173ffffffffffffffffffffffffffffffffffffffff16837f2f8788117e7eff1d82e926ec794901d17c78024a50270940304540a733656f0d60405160405180910390a45b5050565b60006200058f8383620006cf60201b60201c565b620005ea578260000182908060018154018082558091505060019003906000526020600020016000909190919091505582600001805490508360010160008481526020019081526020016000208190555060019050620005ef565b600090505b92915050565b6200060d838383620006f260201b620011ee1760201c565b6200061d620006f760201b60201c565b1562000660576040517f08c379a0000000000000000000000000000000000000000000000000000000008152600401620006579062000a58565b60405180910390fd5b505050565b600080600084815260200190815260200160002060000160008373ffffffffffffffffffffffffffffffffffffffff1673ffffffffffffffffffffffffffffffffffffffff16815260200190815260200160002060009054906101000a900460ff16905092915050565b600080836001016000848152602001908152602001600020541415905092915050565b505050565b6000600760009054906101000a900460ff16905090565b8280546200071c9062000bea565b90600052602060002090601f0160209004810192826200074057600085556200078c565b82601f106200075b57805160ff19168380011785556200078c565b828001600101855582156200078c579182015b828111156200078b5782518255916020019190600101906200076e565b5b5090506200079b91906200079f565b5090565b5b80821115620007ba576000816000905550600101620007a0565b5090565b6000620007d5620007cf8462000acb565b62000a97565b905082815260208101848484011115620007ee57600080fd5b620007fb84828562000bb4565b509392505050565b600081519050620008148162000cad565b92915050565b600082601f8301126200082c57600080fd5b81516200083e848260208601620007be565b91505092915050565b600081519050620008588162000cc7565b92915050565b600080600080608085870312156200087557600080fd5b600085015167ffffffffffffffff8111156200089057600080fd5b6200089e878288016200081a565b945050602085015167ffffffffffffffff811115620008bc57600080fd5b620008ca878288016200081a565b9350506040620008dd8782880162000803565b9250506060620008f08782880162000847565b91505092959194509250565b620009078162000b6c565b82525050565b620009188162000b80565b82525050565b60006200092d601f8362000afe565b91507f45524332303a206d696e7420746f20746865207a65726f2061646472657373006000830152602082019050919050565b60006200096f602a8362000afe565b91507f45524332305061757361626c653a20746f6b656e207472616e7366657220776860008301527f696c6520706175736564000000000000000000000000000000000000000000006020830152604082019050919050565b620009d38162000baa565b82525050565b600060a082019050620009f060008301886200090d565b620009ff60208301876200090d565b62000a0e60408301866200090d565b62000a1d6060830185620009c8565b62000a2c6080830184620008fc565b9695505050505050565b6000602082019050818103600083015262000a51816200091e565b9050919050565b6000602082019050818103600083015262000a738162000960565b9050919050565b600060208201905062000a916000830184620009c8565b92915050565b6000604051905081810181811067ffffffffffffffff8211171562000ac15762000ac062000c7e565b5b8060405250919050565b600067ffffffffffffffff82111562000ae95762000ae862000c7e565b5b601f19601f8301169050602081019050919050565b600082825260208201905092915050565b600062000b1c8262000baa565b915062000b298362000baa565b9250827fffffffffffffffffffffffffffffffffffffffffffffffffffffffffffffffff0382111562000b615762000b6062000c20565b5b828201905092915050565b600062000b798262000b8a565b9050919050565b6000819050919050565b600073ffffffffffffffffffffffffffffffffffffffff82169050919050565b6000819050919050565b60005b8381101562000bd457808201518184015260208101905062000bb7565b8381111562000be4576000848401525b50505050565b6000600282049050600182168062000c0357607f821691505b6020821081141562000c1a5762000c1962000c4f565b5b50919050565b7f4e487b7100000000000000000000000000000000000000000000000000000000600052601160045260246000fd5b7f4e487b7100000000000000000000000000000000000000000000000000000000600052602260045260246000fd5b7f4e487b7100000000000000000000000000000000000000000000000000000000600052604160045260246000fd5b62000cb88162000b6c565b811462000cc457600080fd5b50565b62000cd28162000baa565b811462000cde57600080fd5b50565b60805160a05160c05160e0516101005161012051613e2762000d316000396000610f5a015260006117420152600061178401526000611763015260006116ef015260006117170152613e276000f3fe608060405234801561001057600080fd5b50600436106101f05760003560e01c806370a082311161010f578063a457c2d7116100a2578063d539139311610071578063d5391393146105e1578063d547741f146105ff578063dd62ed3e1461061b578063e63ab1e91461064b576101f0565b8063a457c2d714610535578063a9059cbb14610565578063ca15c87314610595578063d505accf146105c5576101f0565b80639010d07c116100de5780639010d07c1461049957806391d14854146104c957806395d89b41146104f9578063a217fddf14610517576101f0565b806370a082311461041357806379cc6790146104435780637ecebe001461045f5780638456cb591461048f576101f0565b80633408e470116101875780633f4ba83a116101565780633f4ba83a146103b357806340c10f19146103bd57806342966c68146103d95780635c975abb146103f5576101f0565b80633408e4701461032b5780633644e5151461034957806336568abe146103675780633950935114610383576101f0565b806323b872dd116101c357806323b872dd14610291578063248a9ca3146102c15780632f2ff15d146102f1578063313ce5671461030d576101f0565b806301ffc9a7146101f557806306fdde0314610225578063095ea7b31461024357806318160ddd14610273575b600080fd5b61020f600480360381019061020a9190612ae3565b610669565b60405161021c9190613639565b60405180910390f35b61022d6106e3565b60405161023a9190613768565b60405180910390f35b61025d60048036038101906102589190612a06565b610775565b60405161026a9190613639565b60405180910390f35b61027b610793565b6040516102889190613aaa565b60405180910390f35b6102ab60048036038101906102a69190612919565b61079d565b6040516102b89190613639565b60405180910390f35b6102db60048036038101906102d69190612a42565b61089e565b6040516102e89190613654565b60405180910390f35b61030b60048036038101906103069190612a6b565b6108bd565b005b6103156108f1565b6040516103229190613ac5565b60405180910390f35b6103336108fa565b6040516103409190613aaa565b60405180910390f35b610351610902565b60405161035e9190613654565b60405180910390f35b610381600480360381019061037c9190612a6b565b610911565b005b61039d60048036038101906103989190612a06565b610945565b6040516103aa9190613639565b60405180910390f35b6103bb6109f1565b005b6103d760048036038101906103d29190612a06565b610a6b565b005b6103f360048036038101906103ee9190612b0c565b610ae9565b005b6103fd610afd565b60405161040a9190613639565b60405180910390f35b61042d600480360381019061042891906128b4565b610b14565b60405161043a9190613aaa565b60405180910390f35b61045d60048036038101906104589190612a06565b610b5d565b005b610479600480360381019061047491906128b4565b610be1565b6040516104869190613aaa565b60405180910390f35b610497610c31565b005b6104b360048036038101906104ae9190612aa7565b610cab565b6040516104c0919061361e565b60405180910390f35b6104e360048036038101906104de9190612a6b565b610cda565b6040516104f09190613639565b60405180910390f35b610501610d44565b60405161050e9190613768565b60405180910390f35b61051f610dd6565b60405161052c9190613654565b60405180910390f35b61054f600480360381019061054a9190612a06565b610ddd565b60405161055c9190613639565b60405180910390f35b61057f600480360381019061057a9190612a06565b610ed1565b60405161058c9190613639565b60405180910390f35b6105af60048036038101906105aa9190612a42565b610eef565b6040516105bc9190613aaa565b60405180910390f35b6105df60048036038101906105da9190612968565b610f13565b005b6105e9611055565b6040516105f69190613654565b60405180910390f35b61061960048036038101906106149190612a6b565b611079565b005b610635600480360381019061063091906128dd565b6110ad565b6040516106429190613aaa565b60405180910390f35b610653611134565b6040516106609190613654565b60405180910390f35b60007f5a05180f000000000000000000000000000000000000000000000000000000007bffffffffffffffffffffffffffffffffffffffffffffffffffffffff1916827bffffffffffffffffffffffffffffffffffffffffffffffffffffffff191614806106dc57506106db826111f3565b5b9050919050565b6060600580546106f290613cd3565b80601f016020809104026020016040519081016040528092919081815260200182805461071e90613cd3565b801561076b5780601f106107405761010080835404028352916020019161076b565b820191906000526020600020905b81548152906001019060200180831161074e57829003601f168201915b5050505050905090565b600061078961078261126d565b8484611275565b6001905092915050565b6000600454905090565b60006107aa848484611440565b6000600360008673ffffffffffffffffffffffffffffffffffffffff1673ffffffffffffffffffffffffffffffffffffffff16815260200190815260200160002060006107f561126d565b73ffffffffffffffffffffffffffffffffffffffff1673ffffffffffffffffffffffffffffffffffffffff16815260200190815260200160002054905082811015610875576040517f08c379a000000000000000000000000000000000000000000000000000000000815260040161086c9061394a565b60405180910390fd5b6108928561088161126d565b858461088d9190613bb7565b611275565b60019150509392505050565b6000806000838152602001908152602001600020600101549050919050565b6108c782826116c2565b6108ec816001600085815260200190815260200160002061116690919063ffffffff16565b505050565b60006012905090565b600046905090565b600061090c6116eb565b905090565b61091b82826117ae565b610940816001600085815260200190815260200160002061183190919063ffffffff16565b505050565b60006109e761095261126d565b84846003600061096061126d565b73ffffffffffffffffffffffffffffffffffffffff1673ffffffffffffffffffffffffffffffffffffffff16815260200190815260200160002060008873ffffffffffffffffffffffffffffffffffffffff1673ffffffffffffffffffffffffffffffffffffffff168152602001908152602001600020546109e29190613b07565b611275565b6001905092915050565b610a227f65d7a28e3265b37a6474929f336521b332c1681b933f6cb9f3376673440d862a610a1d61126d565b610cda565b610a61576040517f08c379a0000000000000000000000000000000000000000000000000000000008152600401610a589061384a565b60405180910390fd5b610a69611861565b565b610a9c7f9f2df0fed2c77648de5860a4cc508cd0818c85b8b8a1ab4ceeef8d981c8956a6610a9761126d565b610cda565b610adb576040517f08c379a0000000000000000000000000000000000000000000000000000000008152600401610ad29061396a565b60405180910390fd5b610ae58282611903565b5050565b610afa610af461126d565b82611a58565b50565b6000600760009054906101000a900460ff16905090565b6000600260008373ffffffffffffffffffffffffffffffffffffffff1673ffffffffffffffffffffffffffffffffffffffff168152602001908152602001600020549050919050565b6000610b7083610b6b61126d565b6110ad565b905081811015610bb5576040517f08c379a0000000000000000000000000000000000000000000000000000000008152600401610bac9061398a565b60405180910390fd5b610bd283610bc161126d565b8484610bcd9190613bb7565b611275565b610bdc8383611a58565b505050565b6000610c2a600860008473ffffffffffffffffffffffffffffffffffffffff1673ffffffffffffffffffffffffffffffffffffffff168152602001908152602001600020611c2e565b9050919050565b610c627f65d7a28e3265b37a6474929f336521b332c1681b933f6cb9f3376673440d862a610c5d61126d565b610cda565b610ca1576040517f08c379a0000000000000000000000000000000000000000000000000000000008152600401610c9890613a0a565b60405180910390fd5b610ca9611c3c565b565b6000610cd28260016000868152602001908152602001600020611cdf90919063ffffffff16565b905092915050565b600080600084815260200190815260200160002060000160008373ffffffffffffffffffffffffffffffffffffffff1673ffffffffffffffffffffffffffffffffffffffff16815260200190815260200160002060009054906101000a900460ff16905092915050565b606060068054610d5390613cd3565b80601f0160208091040260200160405190810160405280929190818152602001828054610d7f90613cd3565b8015610dcc5780601f10610da157610100808354040283529160200191610dcc565b820191906000526020600020905b815481529060010190602001808311610daf57829003601f168201915b5050505050905090565b6000801b81565b60008060036000610dec61126d565b73ffffffffffffffffffffffffffffffffffffffff1673ffffffffffffffffffffffffffffffffffffffff16815260200190815260200160002060008573ffffffffffffffffffffffffffffffffffffffff1673ffffffffffffffffffffffffffffffffffffffff16815260200190815260200160002054905082811015610ea9576040517f08c379a0000000000000000000000000000000000000000000000000000000008152600401610ea090613a2a565b60405180910390fd5b610ec6610eb461126d565b858584610ec19190613bb7565b611275565b600191505092915050565b6000610ee5610ede61126d565b8484611440565b6001905092915050565b6000610f0c60016000848152602001908152602001600020611cf9565b9050919050565b83421115610f56576040517f08c379a0000000000000000000000000000000000000000000000000000000008152600401610f4d9061388a565b60405180910390fd5b60007f0000000000000000000000000000000000000000000000000000000000000000888888610f858c611d0e565b89604051602001610f9b9695949392919061366f565b6040516020818303038152906040528051906020012090506000610fbe82611d6c565b90506000610fce82878787611d86565b90508973ffffffffffffffffffffffffffffffffffffffff168173ffffffffffffffffffffffffffffffffffffffff161461103e576040517f08c379a00000000000000000000000000000000000000000000000000000000081526004016110359061392a565b60405180910390fd5b6110498a8a8a611275565b50505050505050505050565b7f9f2df0fed2c77648de5860a4cc508cd0818c85b8b8a1ab4ceeef8d981c8956a681565b6110838282611f11565b6110a8816001600085815260200190815260200160002061183190919063ffffffff16565b505050565b6000600360008473ffffffffffffffffffffffffffffffffffffffff1673ffffffffffffffffffffffffffffffffffffffff16815260200190815260200160002060008373ffffffffffffffffffffffffffffffffffffffff1673ffffffffffffffffffffffffffffffffffffffff16815260200190815260200160002054905092915050565b7f65d7a28e3265b37a6474929f336521b332c1681b933f6cb9f3376673440d862a81565b6111628282611f3a565b5050565b600061118e836000018373ffffffffffffffffffffffffffffffffffffffff1660001b61201a565b905092915050565b6111a18383836111ee565b6111a9610afd565b156111e9576040517f08c379a00000000000000000000000000000000000000000000000000000000081526004016111e090613a8a565b60405180910390fd5b505050565b505050565b60007f7965db0b000000000000000000000000000000000000000000000000000000007bffffffffffffffffffffffffffffffffffffffffffffffffffffffff1916827bffffffffffffffffffffffffffffffffffffffffffffffffffffffff1916148061126657506112658261208a565b5b9050919050565b600033905090565b600073ffffffffffffffffffffffffffffffffffffffff168373ffffffffffffffffffffffffffffffffffffffff1614156112e5576040517f08c379a00000000000000000000000000000000000000000000000000000000081526004016112dc906139ea565b60405180910390fd5b600073ffffffffffffffffffffffffffffffffffffffff168273ffffffffffffffffffffffffffffffffffffffff161415611355576040517f08c379a000000000000000000000000000000000000000000000000000000000815260040161134c9061386a565b60405180910390fd5b80600360008573ffffffffffffffffffffffffffffffffffffffff1673ffffffffffffffffffffffffffffffffffffffff16815260200190815260200160002060008473ffffffffffffffffffffffffffffffffffffffff1673ffffffffffffffffffffffffffffffffffffffff168152602001908152602001600020819055508173ffffffffffffffffffffffffffffffffffffffff168373ffffffffffffffffffffffffffffffffffffffff167f8c5be1e5ebec7d5bd14f71427d1e84f3dd0314c0f7b2291e5b200ac8c7c3b925836040516114339190613aaa565b60405180910390a3505050565b600073ffffffffffffffffffffffffffffffffffffffff168373ffffffffffffffffffffffffffffffffffffffff1614156114b0576040517f08c379a00000000000000000000000000000000000000000000000000000000081526004016114a7906139ca565b60405180910390fd5b600073ffffffffffffffffffffffffffffffffffffffff168273ffffffffffffffffffffffffffffffffffffffff161415611520576040517f08c379a0000000000000000000000000000000000000000000000000000000008152600401611517906137ea565b60405180910390fd5b61152b8383836120f4565b6000600260008573ffffffffffffffffffffffffffffffffffffffff1673ffffffffffffffffffffffffffffffffffffffff168152602001908152602001600020549050818110156115b2576040517f08c379a00000000000000000000000000000000000000000000000000000000081526004016115a9906138aa565b60405180910390fd5b81816115be9190613bb7565b600260008673ffffffffffffffffffffffffffffffffffffffff1673ffffffffffffffffffffffffffffffffffffffff1681526020019081526020016000208190555081600260008573ffffffffffffffffffffffffffffffffffffffff1673ffffffffffffffffffffffffffffffffffffffff16815260200190815260200160002060008282546116509190613b07565b925050819055508273ffffffffffffffffffffffffffffffffffffffff168473ffffffffffffffffffffffffffffffffffffffff167fddf252ad1be2c89b69c2b068fc378daa952ba7f163c4a11628f55a4df523b3ef846040516116b49190613aaa565b60405180910390a350505050565b6116cb8261089e565b6116dc816116d761126d565b612104565b6116e68383611f3a565b505050565b60007f000000000000000000000000000000000000000000000000000000000000000046141561173d577f000000000000000000000000000000000000000000000000000000000000000090506117ab565b6117a87f00000000000000000000000000000000000000000000000000000000000000007f00000000000000000000000000000000000000000000000000000000000000007f00000000000000000000000000000000000000000000000000000000000000006121a1565b90505b90565b6117b661126d565b73ffffffffffffffffffffffffffffffffffffffff168173ffffffffffffffffffffffffffffffffffffffff1614611823576040517f08c379a000000000000000000000000000000000000000000000000000000000815260040161181a90613a4a565b60405180910390fd5b61182d82826121db565b5050565b6000611859836000018373ffffffffffffffffffffffffffffffffffffffff1660001b6122bc565b905092915050565b611869610afd565b6118a8576040517f08c379a000000000000000000000000000000000000000000000000000000000815260040161189f9061380a565b60405180910390fd5b6000600760006101000a81548160ff0219169083151502179055507f5db9ee0a495bf2e6ff9c91a7834c1ba4fdd244a5e8aa4e537bd38aeae4b073aa6118ec61126d565b6040516118f9919061361e565b60405180910390a1565b600073ffffffffffffffffffffffffffffffffffffffff168273ffffffffffffffffffffffffffffffffffffffff161415611973576040517f08c379a000000000000000000000000000000000000000000000000000000000815260040161196a90613a6a565b60405180910390fd5b61197f600083836120f4565b80600460008282546119919190613b07565b9250508190555080600260008473ffffffffffffffffffffffffffffffffffffffff1673ffffffffffffffffffffffffffffffffffffffff16815260200190815260200160002060008282546119e79190613b07565b925050819055508173ffffffffffffffffffffffffffffffffffffffff16600073ffffffffffffffffffffffffffffffffffffffff167fddf252ad1be2c89b69c2b068fc378daa952ba7f163c4a11628f55a4df523b3ef83604051611a4c9190613aaa565b60405180910390a35050565b600073ffffffffffffffffffffffffffffffffffffffff168273ffffffffffffffffffffffffffffffffffffffff161415611ac8576040517f08c379a0000000000000000000000000000000000000000000000000000000008152600401611abf906139aa565b60405180910390fd5b611ad4826000836120f4565b6000600260008473ffffffffffffffffffffffffffffffffffffffff1673ffffffffffffffffffffffffffffffffffffffff16815260200190815260200160002054905081811015611b5b576040517f08c379a0000000000000000000000000000000000000000000000000000000008152600401611b529061382a565b60405180910390fd5b8181611b679190613bb7565b600260008573ffffffffffffffffffffffffffffffffffffffff1673ffffffffffffffffffffffffffffffffffffffff168152602001908152602001600020819055508160046000828254611bbc9190613bb7565b92505081905550600073ffffffffffffffffffffffffffffffffffffffff168373ffffffffffffffffffffffffffffffffffffffff167fddf252ad1be2c89b69c2b068fc378daa952ba7f163c4a11628f55a4df523b3ef84604051611c219190613aaa565b60405180910390a3505050565b600081600001549050919050565b611c44610afd565b15611c84576040517f08c379a0000000000000000000000000000000000000000000000000000000008152600401611c7b906138ea565b60405180910390fd5b6001600760006101000a81548160ff0219169083151502179055507f62e78cea01bee320cd4e420270b5ea74000d11b0c9f74754ebdbfc544b05a258611cc861126d565b604051611cd5919061361e565b60405180910390a1565b6000611cee836000018361243a565b60001c905092915050565b6000611d07826000016124d4565b9050919050565b600080600860008473ffffffffffffffffffffffffffffffffffffffff1673ffffffffffffffffffffffffffffffffffffffff1681526020019081526020016000209050611d5b81611c2e565b9150611d66816124e5565b50919050565b6000611d7f611d796116eb565b836124fb565b9050919050565b60007f7fffffffffffffffffffffffffffffff5d576e7357a4501ddfe92f46681b20a08260001c1115611dee576040517f08c379a0000000000000000000000000000000000000000000000000000000008152600401611de5906138ca565b60405180910390fd5b601b8460ff161480611e035750601c8460ff16145b611e42576040517f08c379a0000000000000000000000000000000000000000000000000000000008152600401611e399061390a565b60405180910390fd5b600060018686868660405160008152602001604052604051611e679493929190613723565b6020604051602081039080840390855afa158015611e89573d6000803e3d6000fd5b505050602060405103519050600073ffffffffffffffffffffffffffffffffffffffff168173ffffffffffffffffffffffffffffffffffffffff161415611f05576040517f08c379a0000000000000000000000000000000000000000000000000000000008152600401611efc9061378a565b60405180910390fd5b80915050949350505050565b611f1a8261089e565b611f2b81611f2661126d565b612104565b611f3583836121db565b505050565b611f448282610cda565b61201657600160008084815260200190815260200160002060000160008373ffffffffffffffffffffffffffffffffffffffff1673ffffffffffffffffffffffffffffffffffffffff16815260200190815260200160002060006101000a81548160ff021916908315150217905550611fbb61126d565b73ffffffffffffffffffffffffffffffffffffffff168173ffffffffffffffffffffffffffffffffffffffff16837f2f8788117e7eff1d82e926ec794901d17c78024a50270940304540a733656f0d60405160405180910390a45b5050565b6000612026838361252e565b61207f578260000182908060018154018082558091505060019003906000526020600020016000909190919091505582600001805490508360010160008481526020019081526020016000208190555060019050612084565b600090505b92915050565b60007f01ffc9a7000000000000000000000000000000000000000000000000000000007bffffffffffffffffffffffffffffffffffffffffffffffffffffffff1916827bffffffffffffffffffffffffffffffffffffffffffffffffffffffff1916149050919050565b6120ff838383611196565b505050565b61210e8282610cda565b61219d576121338173ffffffffffffffffffffffffffffffffffffffff166014612551565b6121418360001c6020612551565b6040516020016121529291906135e4565b6040516020818303038152906040526040517f08c379a00000000000000000000000000000000000000000000000000000000081526004016121949190613768565b60405180910390fd5b5050565b600083838346306040516020016121bc9594939291906136d0565b6040516020818303038152906040528051906020012090509392505050565b6121e58282610cda565b156122b857600080600084815260200190815260200160002060000160008373ffffffffffffffffffffffffffffffffffffffff1673ffffffffffffffffffffffffffffffffffffffff16815260200190815260200160002060006101000a81548160ff02191690831515021790555061225d61126d565b73ffffffffffffffffffffffffffffffffffffffff168173ffffffffffffffffffffffffffffffffffffffff16837ff6391f5c32d9c69d2a47ea670b442974b53935d1edc7fd64eb21e047a839171b60405160405180910390a45b5050565b6000808360010160008481526020019081526020016000205490506000811461242e5760006001826122ee9190613bb7565b90506000600186600001805490506123069190613bb7565b90506000866000018281548110612346577f4e487b7100000000000000000000000000000000000000000000000000000000600052603260045260246000fd5b9060005260206000200154905080876000018481548110612390577f4e487b7100000000000000000000000000000000000000000000000000000000600052603260045260246000fd5b90600052602060002001819055508387600101600083815260200190815260200160002081905550866000018054806123f2577f4e487b7100000000000000000000000000000000000000000000000000000000600052603160045260246000fd5b60019003818190600052602060002001600090559055866001016000878152602001908152602001600020600090556001945050505050612434565b60009150505b92915050565b600081836000018054905011612485576040517f08c379a000000000000000000000000000000000000000000000000000000000815260040161247c906137aa565b60405180910390fd5b8260000182815481106124c1577f4e487b7100000000000000000000000000000000000000000000000000000000600052603260045260246000fd5b9060005260206000200154905092915050565b600081600001805490509050919050565b6001816000016000828254019250508190555050565b600082826040516020016125109291906135ad565b60405160208183030381529060405280519060200120905092915050565b600080836001016000848152602001908152602001600020541415905092915050565b6060600060028360026125649190613b5d565b61256e9190613b07565b67ffffffffffffffff8111156125ad577f4e487b7100000000000000000000000000000000000000000000000000000000600052604160045260246000fd5b6040519080825280601f01601f1916602001820160405280156125df5781602001600182028036833780820191505090505b5090507f30000000000000000000000000000000000000000000000000000000000000008160008151811061263d577f4e487b7100000000000000000000000000000000000000000000000000000000600052603260045260246000fd5b60200101907effffffffffffffffffffffffffffffffffffffffffffffffffffffffffffff1916908160001a9053507f7800000000000000000000000000000000000000000000000000000000000000816001815181106126c7577f4e487b7100000000000000000000000000000000000000000000000000000000600052603260045260246000fd5b60200101907effffffffffffffffffffffffffffffffffffffffffffffffffffffffffffff1916908160001a905350600060018460026127079190613b5d565b6127119190613b07565b90505b60018111156127fd577f3031323334353637383961626364656600000000000000000000000000000000600f861660108110612779577f4e487b7100000000000000000000000000000000000000000000000000000000600052603260045260246000fd5b1a60f81b8282815181106127b6577f4e487b7100000000000000000000000000000000000000000000000000000000600052603260045260246000fd5b60200101907effffffffffffffffffffffffffffffffffffffffffffffffffffffffffffff1916908160001a905350600485901c9450806127f690613ca9565b9050612714565b5060008414612841576040517f08c379a0000000000000000000000000000000000000000000000000000000008152600401612838906137ca565b60405180910390fd5b8091505092915050565b60008135905061285a81613d7e565b92915050565b60008135905061286f81613d95565b92915050565b60008135905061288481613dac565b92915050565b60008135905061289981613dc3565b92915050565b6000813590506128ae81613dda565b92915050565b6000602082840312156128c657600080fd5b60006128d48482850161284b565b91505092915050565b600080604083850312156128f057600080fd5b60006128fe8582860161284b565b925050602061290f8582860161284b565b9150509250929050565b60008060006060848603121561292e57600080fd5b600061293c8682870161284b565b935050602061294d8682870161284b565b925050604061295e8682870161288a565b9150509250925092565b600080600080600080600060e0888a03121561298357600080fd5b60006129918a828b0161284b565b97505060206129a28a828b0161284b565b96505060406129b38a828b0161288a565b95505060606129c48a828b0161288a565b94505060806129d58a828b0161289f565b93505060a06129e68a828b01612860565b92505060c06129f78a828b01612860565b91505092959891949750929550565b60008060408385031215612a1957600080fd5b6000612a278582860161284b565b9250506020612a388582860161288a565b9150509250929050565b600060208284031215612a5457600080fd5b6000612a6284828501612860565b91505092915050565b60008060408385031215612a7e57600080fd5b6000612a8c85828601612860565b9250506020612a9d8582860161284b565b9150509250929050565b60008060408385031215612aba57600080fd5b6000612ac885828601612860565b9250506020612ad98582860161288a565b9150509250929050565b600060208284031215612af557600080fd5b6000612b0384828501612875565b91505092915050565b600060208284031215612b1e57600080fd5b6000612b2c8482850161288a565b91505092915050565b612b3e81613beb565b82525050565b612b4d81613bfd565b82525050565b612b5c81613c09565b82525050565b612b73612b6e82613c09565b613d05565b82525050565b6000612b8482613ae0565b612b8e8185613aeb565b9350612b9e818560208601613c76565b612ba781613d6d565b840191505092915050565b6000612bbd82613ae0565b612bc78185613afc565b9350612bd7818560208601613c76565b80840191505092915050565b6000612bf0601883613aeb565b91507f45434453413a20696e76616c6964207369676e617475726500000000000000006000830152602082019050919050565b6000612c30602283613aeb565b91507f456e756d657261626c655365743a20696e646578206f7574206f6620626f756e60008301527f64730000000000000000000000000000000000000000000000000000000000006020830152604082019050919050565b6000612c96602083613aeb565b91507f537472696e67733a20686578206c656e67746820696e73756666696369656e746000830152602082019050919050565b6000612cd6602383613aeb565b91507f45524332303a207472616e7366657220746f20746865207a65726f206164647260008301527f65737300000000000000000000000000000000000000000000000000000000006020830152604082019050919050565b6000612d3c601483613aeb565b91507f5061757361626c653a206e6f74207061757365640000000000000000000000006000830152602082019050919050565b6000612d7c602283613aeb565b91507f45524332303a206275726e20616d6f756e7420657863656564732062616c616e60008301527f63650000000000000000000000000000000000000000000000000000000000006020830152604082019050919050565b6000612de2603983613aeb565b91507f45524332305072657365744d696e7465725061757365723a206d75737420686160008301527f76652070617573657220726f6c6520746f20756e7061757365000000000000006020830152604082019050919050565b6000612e48602283613aeb565b91507f45524332303a20617070726f766520746f20746865207a65726f20616464726560008301527f73730000000000000000000000000000000000000000000000000000000000006020830152604082019050919050565b6000612eae600283613afc565b91507f19010000000000000000000000000000000000000000000000000000000000006000830152600282019050919050565b6000612eee601d83613aeb565b91507f45524332305065726d69743a206578706972656420646561646c696e650000006000830152602082019050919050565b6000612f2e602683613aeb565b91507f45524332303a207472616e7366657220616d6f756e742065786365656473206260008301527f616c616e636500000000000000000000000000000000000000000000000000006020830152604082019050919050565b6000612f94602283613aeb565b91507f45434453413a20696e76616c6964207369676e6174757265202773272076616c60008301527f75650000000000000000000000000000000000000000000000000000000000006020830152604082019050919050565b6000612ffa601083613aeb565b91507f5061757361626c653a20706175736564000000000000000000000000000000006000830152602082019050919050565b600061303a602283613aeb565b91507f45434453413a20696e76616c6964207369676e6174757265202776272076616c60008301527f75650000000000000000000000000000000000000000000000000000000000006020830152604082019050919050565b60006130a0601e83613aeb565b91507f45524332305065726d69743a20696e76616c6964207369676e617475726500006000830152602082019050919050565b60006130e0602883613aeb565b91507f45524332303a207472616e7366657220616d6f756e742065786365656473206160008301527f6c6c6f77616e63650000000000000000000000000000000000000000000000006020830152604082019050919050565b6000613146603683613aeb565b91507f45524332305072657365744d696e7465725061757365723a206d75737420686160008301527f7665206d696e74657220726f6c6520746f206d696e74000000000000000000006020830152604082019050919050565b60006131ac602483613aeb565b91507f45524332303a206275726e20616d6f756e74206578636565647320616c6c6f7760008301527f616e6365000000000000000000000000000000000000000000000000000000006020830152604082019050919050565b6000613212602183613aeb565b91507f45524332303a206275726e2066726f6d20746865207a65726f2061646472657360008301527f73000000000000000000000000000000000000000000000000000000000000006020830152604082019050919050565b6000613278602583613aeb565b91507f45524332303a207472616e736665722066726f6d20746865207a65726f20616460008301527f64726573730000000000000000000000000000000000000000000000000000006020830152604082019050919050565b60006132de602483613aeb565b91507f45524332303a20617070726f76652066726f6d20746865207a65726f2061646460008301527f72657373000000000000000000000000000000000000000000000000000000006020830152604082019050919050565b6000613344603783613aeb565b91507f45524332305072657365744d696e7465725061757365723a206d75737420686160008301527f76652070617573657220726f6c6520746f2070617573650000000000000000006020830152604082019050919050565b60006133aa601783613afc565b91507f416363657373436f6e74726f6c3a206163636f756e74200000000000000000006000830152601782019050919050565b60006133ea602583613aeb565b91507f45524332303a2064656372656173656420616c6c6f77616e63652062656c6f7760008301527f207a65726f0000000000000000000000000000000000000000000000000000006020830152604082019050919050565b6000613450601183613afc565b91507f206973206d697373696e6720726f6c65200000000000000000000000000000006000830152601182019050919050565b6000613490602f83613aeb565b91507f416363657373436f6e74726f6c3a2063616e206f6e6c792072656e6f756e636560008301527f20726f6c657320666f722073656c6600000000000000000000000000000000006020830152604082019050919050565b60006134f6601f83613aeb565b91507f45524332303a206d696e7420746f20746865207a65726f2061646472657373006000830152602082019050919050565b6000613536602a83613aeb565b91507f45524332305061757361626c653a20746f6b656e207472616e7366657220776860008301527f696c6520706175736564000000000000000000000000000000000000000000006020830152604082019050919050565b61359881613c5f565b82525050565b6135a781613c69565b82525050565b60006135b882612ea1565b91506135c48285612b62565b6020820191506135d48284612b62565b6020820191508190509392505050565b60006135ef8261339d565b91506135fb8285612bb2565b915061360682613443565b91506136128284612bb2565b91508190509392505050565b60006020820190506136336000830184612b35565b92915050565b600060208201905061364e6000830184612b44565b92915050565b60006020820190506136696000830184612b53565b92915050565b600060c0820190506136846000830189612b53565b6136916020830188612b35565b61369e6040830187612b35565b6136ab606083018661358f565b6136b8608083018561358f565b6136c560a083018461358f565b979650505050505050565b600060a0820190506136e56000830188612b53565b6136f26020830187612b53565b6136ff6040830186612b53565b61370c606083018561358f565b6137196080830184612b35565b9695505050505050565b60006080820190506137386000830187612b53565b613745602083018661359e565b6137526040830185612b53565b61375f6060830184612b53565b95945050505050565b600060208201905081810360008301526137828184612b79565b905092915050565b600060208201905081810360008301526137a381612be3565b9050919050565b600060208201905081810360008301526137c381612c23565b9050919050565b600060208201905081810360008301526137e381612c89565b9050919050565b6000602082019050818103600083015261380381612cc9565b9050919050565b6000602082019050818103600083015261382381612d2f565b9050919050565b6000602082019050818103600083015261384381612d6f565b9050919050565b6000602082019050818103600083015261386381612dd5565b9050919050565b6000602082019050818103600083015261388381612e3b565b9050919050565b600060208201905081810360008301526138a381612ee1565b9050919050565b600060208201905081810360008301526138c381612f21565b9050919050565b600060208201905081810360008301526138e381612f87565b9050919050565b6000602082019050818103600083015261390381612fed565b9050919050565b600060208201905081810360008301526139238161302d565b9050919050565b6000602082019050818103600083015261394381613093565b9050919050565b60006020820190508181036000830152613963816130d3565b9050919050565b6000602082019050818103600083015261398381613139565b9050919050565b600060208201905081810360008301526139a38161319f565b9050919050565b600060208201905081810360008301526139c381613205565b9050919050565b600060208201905081810360008301526139e38161326b565b9050919050565b60006020820190508181036000830152613a03816132d1565b9050919050565b60006020820190508181036000830152613a2381613337565b9050919050565b60006020820190508181036000830152613a43816133dd565b9050919050565b60006020820190508181036000830152613a6381613483565b9050919050565b60006020820190508181036000830152613a83816134e9565b9050919050565b60006020820190508181036000830152613aa381613529565b9050919050565b6000602082019050613abf600083018461358f565b92915050565b6000602082019050613ada600083018461359e565b92915050565b600081519050919050565b600082825260208201905092915050565b600081905092915050565b6000613b1282613c5f565b9150613b1d83613c5f565b9250827fffffffffffffffffffffffffffffffffffffffffffffffffffffffffffffffff03821115613b5257613b51613d0f565b5b828201905092915050565b6000613b6882613c5f565b9150613b7383613c5f565b9250817fffffffffffffffffffffffffffffffffffffffffffffffffffffffffffffffff0483118215151615613bac57613bab613d0f565b5b828202905092915050565b6000613bc282613c5f565b9150613bcd83613c5f565b925082821015613be057613bdf613d0f565b5b828203905092915050565b6000613bf682613c3f565b9050919050565b60008115159050919050565b6000819050919050565b60007fffffffff0000000000000000000000000000000000000000000000000000000082169050919050565b600073ffffffffffffffffffffffffffffffffffffffff82169050919050565b6000819050919050565b600060ff82169050919050565b60005b83811015613c94578082015181840152602081019050613c79565b83811115613ca3576000848401525b50505050565b6000613cb482613c5f565b91506000821415613cc857613cc7613d0f565b5b600182039050919050565b60006002820490506001821680613ceb57607f821691505b60208210811415613cff57613cfe613d3e565b5b50919050565b6000819050919050565b7f4e487b7100000000000000000000000000000000000000000000000000000000600052601160045260246000fd5b7f4e487b7100000000000000000000000000000000000000000000000000000000600052602260045260246000fd5b6000601f19601f8301169050919050565b613d8781613beb565b8114613d9257600080fd5b50565b613d9e81613c09565b8114613da957600080fd5b50565b613db581613c13565b8114613dc057600080fd5b50565b613dcc81613c5f565b8114613dd757600080fd5b50565b613de381613c69565b8114613dee57600080fd5b5056fea2646970667358221220f5113f926ab0b6e2f223d33d416ee48a46d8238a36f55a3b6ef8272c4e66f33764736f6c63430008000033",
  "linkReferences": {},
  "deployedLinkReferences": {}
}